S00D000050726F6A332E7372656349
S11300000C9456000C9473000C9473000C947300BD
S11300100C9473000C9473000C9473000C94730090
S11300200C9473000C9473000C9473000C94730080
S11300300C9473000C9473000C9473000C94730070
S11300400C9473000C94C5010C9473000C9473000D
S11300500C9473000C9473000C9473000C94730050
S11300600C94A1010C9473000C9473000C94730011
S11300700C9473000C9473000C9473000C94730030
S11300800C9473000C9473000C9473000C94730020
S11300900C9473000C9473000C9473000C94730010
S11300A00C9473000C9473000C94730011241FBE01
S11300B0CFEFDAE0DEBFCDBF11E0A0E0B1E0E6E5CE
S11300C0F5E002C005900D92A03EB107D9F711E00A
S11300D0A0EEB1E001C01D92A93EB107E1F70E9474
S11300E0C5000C94A9020C940000813618F01092FB
S11300F0B1010895813420F081E08093B101089525
S1130100813220F082E08093B101089583E08093EE
S1130110B10108950E9419018823B1F10E941101CF
S1130120982F907911F10E9427010E9411018531C5
S113013010F0855101C080E0E82FF0E0EE0FFF1FC2
S1130140E050FF4F80819181A0E0B0E08093B50141
S11301509093B601A093B701B093B8010E943901FE
S11301600E9411010E947500089588233CF40E94A6
S113017031010E9411010E94110108950E94310170
S11301800E9411010E941101089582E19AE740E062
S113019054E264EF70E00E94D9000E941D010E94A5
S11301A039010E94310178940E947E010E948A00E4
S11301B0FDCFCF92DF92EF92FF926A017B016894A8
S11301C013F8F694E794D794C7941694D1F79C0146
S11301D040E050E0C701B6010E948702DA01C9017C
S11301E00197A109B109292F2F702093CD00809385
S11301F0CC0088E18093C9008EE08093CA00E8ECCB
S1130200F0E080818D7F8083FF90EF90DF90CF902E
S11302100895E8ECF0E0908195FFFDCF8093CE0047
S11302200895E8ECF0E080818823ECF78091CE001B
S113023008958091C800807808951092800088E025
S11302408093810082E080936F0016BA0895E1E8FC
S1130250F0E080818160808382E080936F0016BA31
S11302600895E1E8F0E080818E7F808310926F0032
S113027008958091B001813091F42091B5013091BD
S1130280B6014091B7015091B80160E472E48FE087
S113029090E00E9487023093890020938800809127
S11302A0B001823099F42091B5013091B6014091AA
S11302B0B7015091B80160E472E48FE090E00E94CD
S11302C08702309389002093880008958091B001BB
S11302D0833061F48091B5019091B601A091B7018A
S11302E0B091B801109289001092880008959F700F
S11302F090679093E1018093E001089587E084B9C9
S113030080ED8CBD81E08DBD85B908958091E201B9
S1130310882341F481E08093E20128988091E101EF
S11303208EBD08958091E201813039F482E080939A
S1130330E2018091E0018EBD08951092E201289AB5
S113034008951F920F920FB60F9211242F933F938B
S11303504F935F936F937F938F939F93AF93BF93C9
S1130360EF93FF930E948601FF91EF91BF91AF91AC
S11303709F918F917F916F915F914F913F912F91B9
S11303800F900FBE0F901F9018951F920F920FB6EB
S11303900F9211242F933F934F935F936F937F9307
S11303A08F939F93AF93BF93EF93FF938091B0018B
S11303B0813011F58091E3019091E4012FE08F3FAA
S11303C0920729F41092E4011092E30110C08050C6
S11303D09F4F9093E4018093E30140E180309407C0
S11303E030F08FEF9FE09093E4018093E30120913C
S11303F0E3013091E40167C08091B0018230E1F4FF
S11304008091E5019091E6018031910521F41092EB
S1130410E6011092E5018091E5019091E601FC016D
S1130420EE0FFF1FE354FE4F20813181019690931C
S1130430E6018093E50147C08091B001833009F063
S113044040C02091DD0180E0922F9295990F907E1B
S113045099230CF40F969595879595958795959581
S11304608795959587952091E7013091E801820F52
S1130470931F9093E8018093E70150E18030950742
S113048068F08FEF9FE09093E8018093E7018FEF8E
S11304909FEF9093DE018093DD010EC022E0803057
S11304A0920750F41092E8011092E70181E090E085
S11304B09093DE018093DD012091E7013091E80102
S11304C002C020E030E08091B1019091B201A0918E
S11304D0B301B091B401A90102C0569547958A951C
S11304E0E2F7CA010E9477010E948601FF91EF9111
S11304F0BF91AF919F918F917F916F915F914F9138
S11305003F912F910F900FBE0F901F901895A1E26D
S11305101A2EAA1BBB1BFD010DC0AA1FBB1FEE1F79
S1130520FF1FA217B307E407F50720F0A21BB30BC4
S1130530E40BF50B661F771F881F991F1A9469F740
S113054060957095809590959B01AC01BD01CF019C
S10905500895F894FFCFAA
S11305561C001D001F002100230025002700290080
S11305662C002E003100340037003A003E004100D2
S1130576450049004E00520057005C0062006800C6
S11305866E0075007B0083008B0093009C00A50021
S1130596AF00B900C400D000DC00E900F700060192
S11305A61501260137014A015D01720188019F0187
S11305B6B801D201EE010B022A024B026E0293022B
S11305C6BA02E40210033F037003A403DC03170416
S11305D655049704DD0427057505C80520067D0620
S11305E6E0064907B8072D08A9082D09B9094D0AD7
S11305F6EA0A900B400CFA0CC00D910E6F0F5A10BC
S11306060201000000E80300000A000000000810D0
S11306160BA80D640FFF0F640FA80D100B0008F054
S11306260458029C0000009C005802F004010000DB
S9030000FC
