S00D000050726F6A332E7372656349
S11300000C9456000C9473000C9473000C947300BD
S11300100C9473000C9473000C9473000C94730090
S11300200C9473000C9473000C9473000C94730080
S11300300C9473000C9473000C9473000C94730070
S11300400C9473000C946C010C9473000C94730066
S11300500C9473000C9473000C9473000C94730050
S11300600C9448010C9473000C9473000C9473006A
S11300700C9473000C9473000C9473000C94730030
S11300800C9473000C9473000C9473000C94730020
S11300900C9473000C9473000C9473000C94730010
S11300A00C9473000C9473000C94730011241FBE01
S11300B0CFEFDAE0DEBFCDBF11E0A0E0B1E0EEEFBC
S11300C0F3E002C005900D92AA32B107D9F711E00E
S11300D0AAE2B1E001C01D92A133B107E1F70E9489
S11300E080000C94FD010C9400000E94D20088232F
S11300F031F00E94CA000E94CA000E94CA000895FA
S113010082E19AE740E054E264EF70E00E949200DA
S11301100E94D6000E94F1000E94E00078940E94A0
S11301202501FFCFCF92DF92EF92FF926A017B010C
S1130130689413F8F694E794D794C7941694D1F777
S11301409C0140E050E0C701B6010E94DB01DA01E6
S1130150C9010197A109B109292F2F702093CD005E
S11301608093CC0088E18093C9008EE08093CA001C
S1130170E8ECF0E080818D7F8083FF90EF90DF904A
S1130180CF900895E8ECF0E0908195FFFDCF809347
S1130190CE000895E8ECF0E080818823ECF78091AC
S11301A0CE0008958091C800807808951092800050
S11301B088E08093810082E280936F0016BA0895EC
S11301C0E1E8F0E080818160808382E280936F00C7
S11301D00895E1E8F0E080818E7F808310926F00C3
S11301E0089580910001813091F4209101013091B2
S11301F00201409103015091040160E970ED83E034
S113020090E00E94DB013093990020939800809144
S11302100001823091F4209101013091020140915A
S113022003015091040160E472E48FE090E00E94C5
S1130230DB01309389002093880008959F709067B4
S113024090932B0180932A01089587E084B980ED6F
S11302508CBD81E08DBD85B9089580912C018823E2
S113026041F481E080932C01289880912B018EBD6C
S1130270089580912C01813039F482E080932C011F
S113028080912A018EBD089510922C01289A089518
S11302901F920F920FB60F9211242F933F934F93F7
S11302A05F936F937F938F939F93AF93BF93EF93DA
S11302B0FF930E942D01FF91EF91BF91AF919F9108
S11302C08F917F916F915F914F913F912F910F90FB
S11302D00FBE0F901F9018951F920F920FB60F929A
S11302E011242F933F934F935F936F937F938F9337
S11302F09F93AF93BF93EF93FF938091000181305D
S113030011F580912D0190912E012FE08F3F9207DE
S113031029F410922E0110922D0110C0805C9F4F81
S113032090932E0180932D0120E18030920730F0CC
S11303308FEF9FE090932E0180932D0180912D01EA
S113034090912E0123C0809100018230E9F48091C4
S11303502F01909130018031910521F410923001E8
S113036010922F0120912F0130913001F901EE0FED
S1130370FF1FE75FFE4F808191812F5F3F4F3093D6
S1130380300120932F0102C080E090E00E941E0102
S11303900E942D01FF91EF91BF91AF919F918F9199
S11303A07F916F915F914F913F912F910F900FBE6D
S11303B00F901F901895A1E21A2EAA1BBB1BFD01DA
S11303C00DC0AA1FBB1FEE1FFF1FA217B307E40730
S11303D0F50720F0A21BB30BE40BF50B661F771F88
S11303E0881F991F1A9469F7609570958095909568
S11103F09B01AC01BD01CF010895F894FFCF2D
S11303FE02E80300000A0000000008100BA80D64B8
S113040E0FFF0F640FA80D100B0008F00458029C88
S10D041E0000009C005802F00400E6
S9030000FC
