S010000050726F6A656374322E737265630B
S11300000C9456000C9473000C9473000C947300BD
S11300100C9473000C9473000C9473000C94730090
S11300200C9473000C9473000C9473000C94730080
S11300300C9473000C9473000C9473000C94730070
S11300400C9473000C942C010C9454010C947300C4
S11300500C9473000C9473000C9473000C94730050
S11300600C9406010C9473000C9473000C947300AC
S11300700C9473000C9473000C9473000C94730030
S11300800C947C010C9473000C9473000C94730016
S11300900C9473000C9473000C9473000C94730010
S11300A00C9473000C9473000C94730011241FBE01
S11300B0CFEFDAE0DEBFCDBF11E0A0E0B1E0E6E7CC
S11300C0F4E002C005900D92A238B107D9F711E00F
S11300D0A2E8B1E001C01D92A938B107E1F70E947E
S11300E0DF000C9439020C940000109280008BE025
S11300F08093810081E08093890084EF809388005D
S113010010928B008DE780938A0086E280936F00C3
S113011016BA08951092900089E08093910082E2CB
S11301208093710018BA0895CF93DF93EC019B017B
S113013040E050E060E970ED83E090E00E94FC0153
S11301402C9FC0012D9F900D3C9F900D112464E6BF
S113015070E00E94E8013093890020938800709336
S11301608B0060938A00DF91CF9108959C0140E059
S113017050E060E970ED83E090E00E94FC01309370
S113018099002093980008959C0140E050E060E9B4
S113019070ED83E090E00E94FC013093990020937D
S11301A0980008959F7090679093830180938201D3
S11301B0089580ED8CBD81E08DBD85B908950E94C0
S11301C08A00789487E084B90E94D90081EB91E099
S11301D00E94B600FFCF80918401882341F481E01E
S11301E0809384012898809183018EBD0895809125
S11301F08401813039F482E080938401809182010A
S11302008EBD089510928401289A08951F920F922A
S11302100FB60F9211242F933F934F935F936F93D5
S11302207F938F939F93AF93BF93EF93FF93F89430
S11302300E94EB007894FF91EF91BF91AF919F9151
S11302408F917F916F915F914F913F912F910F907B
S11302500FBE0F901F9018951F920F920FB60F921A
S113026011242F933F934F935F936F937F938F93B7
S11302709F93AF93BF93EF93FF938FEF9FE00E9401
S1130280D2000E94EB00FF91EF91BF91AF919F913B
S11302908F917F916F915F914F913F912F910F902B
S11302A00FBE0F901F9018951F920F920FB60F92CA
S11302B011242F933F934F935F936F937F938F9367
S11302C09F93AF93BF93EF93FF9380E090E00E94DE
S11302D0D2000E94EB00FF91EF91BF91AF919F91EB
S11302E08F917F916F915F914F913F912F910F90DB
S11302F00FBE0F901F9018951F920F920FB60F927A
S113030011242F933F934F935F936F937F938F9316
S11303109F93AF93BF93EF93FF93209100012130FC
S113032011F580918501909186012FE08F3F92070E
S113033029F4109286011092850110C0805C9F4FB1
S1130340909386018093850120E18030920730F0FC
S11303508FEF9FE0909386018093850180918501C2
S11303609091860120C0209100012230E1F4809117
S11303708701909188018034910521F410928801BD
S1130380109287012091870130918801F901EE0FC5
S1130390FF1FEF5FFE4F808191812F5F3F4F3093AE
S11303A08801209387010E94D2000E94EB00FF91F4
S11303B0EF91BF91AF919F918F917F916F915F91D9
S11303C04F913F912F910F900FBE0F901F90189552
S11303D0AA1BBB1B51E107C0AA1FBB1FA617B70767
S11303E010F0A61BB70B881F991F5A95A9F7809583
S11303F09095BC01CD01089597FB092E05260ED0DA
S113040057FD04D014D00AD0001C38F45095409500
S1130410309521953F4F4F4F5F4F0895F6F79095D4
S11304208095709561957F4F8F4F9F4F0895A1E2FE
S11304301A2EAA1BBB1BFD010DC0AA1FBB1FEE1F5A
S1130440FF1FA217B307E407F50720F0A21BB30BA5
S1130450E40BF50B661F771F881F991F1A9469F721
S113046060957095809590959B01AC01BD01CF017D
S10904700895F894FFCF8B
S1130476020008C9089009530A100BC50B720C1325
S11304860DA80D2F0EA70E0E0F640FA80FD90FF689
S11304960FFF0FF60FD90FA80F640F0E0FA70E2F1D
S11304A60EA80D130D720CC50B100B530A9009C937
S11304B608000837077006AD05F0043B048E03ED0B
S11304C6025802D1015901F2009C00580027000A83
S11304D60000000A00270058009C00F2005901D1D0
S11304E6015802ED028E033B04F004AD0570063795
S10504F60700F9
S9030000FC
