S010000050726F6A656374322E737265630B
S11300000C9456000C9473000C9473000C947300BD
S11300100C9473000C9473000C9473000C94730090
S11300200C9473000C9473000C9473000C94730080
S11300300C9473000C9473000C9473000C94730070
S11300400C9473000C9408010C9430010C9473000C
S11300500C9473000C9473000C9473000C94730050
S11300600C94E2000C9473000C9473000C947300D1
S11300700C9473000C9473000C9473000C94730030
S11300800C9473000C9473000C9473000C94730020
S11300900C9473000C9473000C9473000C94730010
S11300A00C9473000C9473000C94730011241FBE01
S11300B0CFEFDAE0DEBFCDBF11E0A0E0B1E0E6E5CE
S11300C0F3E002C005900D92A030B107D9F711E01A
S11300D0A0E0B1E001C01D92A430B107E1F70E9495
S11300E0B9000C94A9010C940000109280008BE0DC
S11300F08093810081E08093890084EF809388005D
S113010010928B008DE780938A0086E280936F00C3
S113011016BA0895CF93DF93EC019B0140E050E0C1
S113012060E970ED83E090E00E946C012C9FC001B7
S11301302D9F900D3C9F900D112464E670E00E9469
S11301405801309389002093880070938B0060934A
S11301508A00DF91CF9108959F7090679093020178
S113016080930101089580ED8CBD1DBC81E085B9AB
S113017008950E947500789487E084B90E94B300C2
S113018087E190E064EF71E00E948A00FFCF8091E4
S11301900301882341F481E080930301289880912E
S11301A002018EBD089580910301813039F482E00B
S11301B080930301809101018EBD08951092030183
S11301C0289A08951F920F920FB60F9211242F931D
S11301D03F934F935F936F937F938F939F93AF93CB
S11301E0BF93EF93FF93F8940E94C7007894FF9114
S11301F0EF91BF91AF919F918F917F916F915F919B
S11302004F913F912F910F900FBE0F901F90189513
S11302101F920F920FB60F9211242F933F934F9377
S11302205F936F937F938F939F93AF93BF93EF935A
S1130230FF938FEF9FE00E94AC000E94C700FF91E4
S1130240EF91BF91AF919F918F917F916F915F914A
S11302504F913F912F910F900FBE0F901F901895C3
S11302601F920F920FB60F9211242F933F934F9327
S11302705F936F937F938F939F93AF93BF93EF930A
S1130280FF9380E090E00E94AC000E94C700FF91C1
S1130290EF91BF91AF919F918F917F916F915F91FA
S11302A04F913F912F910F900FBE0F901F90189573
S11302B0AA1BBB1B51E107C0AA1FBB1FA617B70788
S11302C010F0A61BB70B881F991F5A95A9F78095A4
S11302D09095BC01CD01089597FB092E05260ED0FB
S11302E057FD04D014D00AD0001C38F45095409522
S11302F0309521953F4F4F4F5F4F0895F6F79095F6
S11303008095709561957F4F8F4F9F4F0895A1E21F
S11303101A2EAA1BBB1BFD010DC0AA1FBB1FEE1F7B
S1130320FF1FA217B307E407F50720F0A21BB30BC6
S1130330E40BF50B661F771F881F991F1A9469F742
S113034060957095809590959B01AC01BD01CF019E
S10903500895F894FFCFAC
S9030000FC
