S010000050726F6A656374322E737265630B
S11300000C9456000C9473000C9473000C947300BD
S11300100C9473000C9473000C9473000C94730090
S11300200C9473000C9473000C9473000C94730080
S11300300C9473000C9473000C9473000C94730070
S11300400C9473000C9473000C9473000C94730060
S11300500C9473000C9473000C9473000C94730050
S11300600C94D6000C9473000C9473000C947300DD
S11300700C9473000C9473000C9473000C94730030
S11300800C9473000C9473000C9473000C94730020
S11300900C9473000C9473000C9473000C94730010
S11300A00C9473000C9473000C94730011241FBE01
S11300B0CFEFDAE0DEBFCDBF11E0A0E0B1E0ECEFBE
S11300C0F1E002C005900D92A030B107D9F711E01C
S11300D0A0E0B1E001C01D92A330B107E1F70E9496
S11300E096000C94FC000C94000080ED8CBD1DBCAB
S11300F081E085B9089580910201882341F481E06B
S1130100809302012898809101018EBD0895809109
S11301100201813039F482E0809302018091000170
S11301208EBD089510920201289A0895789487E06C
S113013084B90E947500EE24FF24C0E0D0E0CC24F2
S1130140DD2414C080E190E0E80EF91E8F2D8F703D
S1130150806780930101E09200010E947B008FEB95
S11301609DE50197F1F700C000002196C031D1054B
S11301704CF3870100501140E70160978D2F8F7079
S1130180806780930101C09300010E947B008FEB84
S11301909DE50197F1F700C00000C017D10769F78A
S11301A080E09FEFE80EF91EE601E0CF1F920F9268
S11301B00FB60F9211242F933F934F935F936F9336
S11301C07F938F939F93AF93BF93EF93FF93F89491
S11301D00E947B007894FF91EF91BF91AF919F9122
S11301E08F917F916F915F914F913F912F910F90DC
S10F01F00FBE0F901F901895F894FFCFDD
S9030000FC
