S010000050726F6A656374322E737265630B
S11300000C9456000C9473000C9473000C947300BD
S11300100C9473000C9473000C9473000C94730090
S11300200C9473000C9473000C9473000C94730080
S11300300C9473000C9473000C9473000C94730070
S11300400C9473000C9433020C945B020C947300B4
S11300500C9473000C9473000C9473000C94730050
S11300600C940D020C9473000C9473000C947300A4
S11300700C9473000C9473000C9473000C94730030
S11300800C9483020C9473000C9473000C9473000E
S11300900C9473000C9473000C9473000C94730010
S11300A00C9473000C9473000C94730011241FBE01
S11300B0CFEFDAE0DEBFCDBF11E0A0E0B1E0EAE6C9
S11300C0F6E002C005900D92AA38B107D9F711E005
S11300D0AAE8B1E001C01D92A139B107E1F70E947D
S11300E0E0010C9433030C9400008AB18C7F8AB92C
S11300F08BB183608BB984988C9A08951092800098
S113010088E08093810086E280936F0016BA089598
S11301101092900088E08093910082E280937100B5
S113012018BA0895E1E8F0E080818360808386E274
S113013080936F000895E1E8F0E08081887F8083F8
S113014010926F000895E1E9F0E08081816080837E
S113015082E2809371000895E1E9F0E080818E7F6E
S11301608083109271000895CF92DF92EF92FF92F4
S11301700F931F93209101013091020140910301DB
S11301805091040160E970ED83E090E00E94110356
S113019069017A012091050130910601409107011E
S11301A050910801C701B6010E94F20224E630E032
S11301B040E050E00E94110389019A01BB27AF2D52
S11301C09E2D8D2D80938900C0928800BB27A32F7C
S11301D0922F812F80938B0000938A0080910001DD
S11301E0813099F420910101309102014091030181
S11301F05091040160E970ED83E090E00E941103E6
S1130200309399002093980016C0809100018230A9
S113021091F4209101013091020140910301509128
S1130220040160E970ED83E090E00E9411033093D3
S11302309900209398001F910F91FF90EF90DF9009
S1130240CF9008958091050190910601A091070136
S1130250B09108018A359105A105B10569F48AE0D8
S113026090E0A0E0B0E08093050190930601A09394
S11302700701B093080113C0809105019091060114
S1130280A0910701B09108010A96A11DB11D8093A8
S1130290050190930601A0930701B09308010E9401
S11302A0B40008958091010190910201A09103018D
S11302B0B0910401843F21E0920720E0A20720E0EE
S11302C0B20769F484E690E0A0E0B0E08093010115
S11302D090930201A0930301B093040114C0809190
S11302E0010190910201A0910301B09104018C5984
S11302F09F4FAF4FBF4F8093010190930201A09392
S11303000301B09304010E94B40008958091000198
S1130310882341F40E949B0081E0809300010E94A5
S1130320A30016C080910001813021F482E0809303
S113033000010EC080910001823039F40E94AC00AB
S1130340109200010E94920003C082E08093000199
S11303500E94B400089548990BC00E9486018FEF53
S113036091EEA4E081509040A040E1F700C000006D
S11303707C990BC00E9422018FEF91EEA4E0815082
S11303809040A040E1F700C0000049990BC00E94D2
S113039052018FEF91EEA4E081509040A040E1F72C
S11303A000C0000008959F70906790938B01809324
S11303B08A01089580ED8CBD81E08DBD85B90895D5
S11303C00E9475000E947E000E9488000E94B40072
S11303D00E94A300789487E084B90E94DA010E9405
S11303E0AB01FDCF80918C01882341F481E080939F
S11303F08C01289880918B018EBD089580918C0189
S1130400813039F482E080938C0180918A018EBD21
S1130410089510928C01289A08951F920F920FB696
S11304200F9211242F933F934F935F936F937F9376
S11304308F939F93AF93BF93EF93FF93F8940E948E
S1130440F2017894FF91EF91BF91AF919F918F91B9
S11304507F916F915F914F913F912F910F900FBEBC
S11304600F901F9018951F920F920FB60F921124A0
S11304702F933F934F935F936F937F938F939F93A8
S1130480AF93BF93EF93FF938FEF9FE00E94D3014D
S11304900E94F201FF91EF91BF91AF919F918F91D3
S11304A07F916F915F914F913F912F910F900FBE6C
S11304B00F901F9018951F920F920FB60F92112450
S11304C02F933F934F935F936F937F938F939F9358
S11304D0AF93BF93EF93FF9380E090E00E94D3012A
S11304E00E94F201FF91EF91BF91AF919F918F9183
S11304F07F916F915F914F913F912F910F900FBE1C
S11305000F901F9018951F920F920FB60F921124FF
S11305102F933F934F935F936F937F938F939F9307
S1130520AF93BF93EF93FF9380910001813011F556
S113053080918D0190918E012FE08F3F920729F4D5
S113054010928E0110928D0110C0805C9F4F909389
S11305508E0180938D0120E18030920730F08FEF7F
S11305609FE090938E0180938D0180918D019091F5
S11305708E0123C0809100018230E9F480918F01C3
S1130580909190018034910521F410929001109281
S11305908F0120918F0130919001F901EE0FFF1F1F
S11305A0E75FFE4F808191812F5F3F4F3093900131
S11305B020938F0102C080E090E00E94D3010E944A
S11305C0F201FF91EF91BF91AF919F918F917F9134
S11305D06F915F914F913F912F910F900FBE0F90AC
S11305E01F901895629FD001739FF001829FE00DC8
S11305F0F11D649FE00DF11D929FF00D839FF00D9E
S1130600749FF00D659FF00D9927729FB00DE11D49
S1130610F91F639FB00DE11DF91FBD01CF01112426
S11306200895A1E21A2EAA1BBB1BFD010DC0AA1F2F
S1130630BB1FEE1FFF1FA217B307E407F50720F047
S1130640A21BB30BE40BF50B661F771F881F991FC2
S11306501A9469F760957095809590959B01AC010B
S10D0660BD01CF010895F894FFCF07
S113066A01640000000A0000000008C90890095348
S113067A0A100BC50B720C130DA80D2F0EA70E0E24
S113068A0F640FA80FD90FF60FFF0FF60FD90FA893
S113069A0F640F0E0FA70E2F0EA80D130D720CC5A3
S11306AA0B100B530A9009C908000837077006ADE6
S11306BA05F0043B048E03ED025802D1015901F2FC
S11306CA009C00580027000A0000000A002700586E
S11306DA009C00F2005901D1015802ED028E033B3D
S10D06EA04F004AD057006370700A4
S9030000FC
