S011000070726F6A315F4C43442E73726563F5
S11300000C9456000C9473000C9473000C947300BD
S11300100C9473000C9473000C9473000C94F8000B
S11300200C9473000C9473000C9473000C94730080
S11300300C9473000C9473000C9473000C94730070
S11300400C9473000C9473000C9473000C94730060
S11300500C9473000C9473000C9473000C94730050
S11300600C9473000C9473000C9473000C94730040
S11300700C9473000C9473000C9473000C94730030
S11300800C9473000C9473000C9473000C94730020
S11300900C9473000C9473000C9473000C94730010
S11300A00C9473000C9473000C94730011241FBE01
S11300B0CFEFDAE0DEBFCDBF11E0A0E0B1E0E8E3CE
S11300C0F2E002C005900D92A030B107D9F711E01B
S11300D0A0E0B1E001C01D92A130B107E1F70E9498
S11300E0A7000C941A010C9400002A9A8BB985E09D
S11300F08A95F1F700002A980895289A95E09A9530
S1130100F1F700008BB985E08A95F1F7000085B11D
S1130110856085B995E09A95F1F7000085B18A7FED
S113012085B98FE891E00197F1F700C000000895C8
S1130130CF93DF93EC018881882331F021960E94CC
S11301407D0089918823D9F7DF91CF9108958FEFAE
S11301508AB987E084B9769AEAE6F0E08081806221
S11301608083EE9A78948FEF93EFA1E081509040D2
S1130170A040E1F700C0000088E30E947500A7ECEE
S1130180B0E01197F1F700C000008CE00E94750008
S113019087EC90E00197F1F700C0000081E00E9435
S11301A07500AFE1BEE41197F1F700C0000086E0EE
S11301B00E9475008FE99FE00197F1F700C00000ED
S11301C081E00E947500AFE1BEE41197F1F700C031
S11301D0000080910001805D0E947D008FEF91EE10
S11301E0A4E081509040A040E1F700C00000E8CFB7
S11301F01F920F920FB60F9211248F939F93AF9378
S1130200BF93F894809100018F5F809300018FEF7A
S113021099E6A8E181509040A040E1F700C00000B9
S11302207894BF91AF919F918F910F900FBE0F90D3
S10B02301F901895F894FFCF0C
S9030000FC
