S011000070726F6A315F4C43442E73726563F5
S11300000C9456000C9473000C9473000C947300BD
S11300100C9473000C9473000C9473000C94730090
S11300200C9473000C9473000C9473000C94730080
S11300300C9473000C9473000C9473000C94730070
S11300400C9473000C9473000C9473000C94730060
S11300500C9473000C9473000C9473000C94730050
S11300600C9473000C9473000C9473000C94730040
S11300700C9473000C9473000C9473000C94730030
S11300800C9473000C9473000C9473000C94730020
S11300900C9473000C9473000C9473000C94730010
S11300A00C9473000C9473000C94730011241FBE01
S11300B0CFEFDAE0DEBFCDBF11E0A0E0B1E0E4E2D3
S11300C0F2E002C005900D92A830B107D9F711E013
S11300D0A8E0B1E001C01D92A930B107E1F70E9488
S11300E0A7000C9410010C9400002A9A8BB985E0A7
S11300F08A95F1F700002A980895289A95E09A9530
S1130100F1F700008BB985E08A95F1F7000085B11D
S1130110856085B995E09A95F1F7000085B18A7FED
S113012085B98FE891E00197F1F700C000000895C8
S1130130CF93DF93EC018881882331F021960E94CC
S11301407D0089918823D9F7DF91CF9108958FEFAE
S11301508AB987E084B92B9A8FEF93EFA1E081509D
S11301609040A040E1F700C0000088E30E947500C1
S1130170A7ECB0E01197F1F700C000008CE00E94FA
S1130180750087EC90E00197F1F700C0000081E072
S11301900E947500AFE1BEE41197F1F700C00000C2
S11301A086E00E9475008FE99FE00197F1F700C097
S11301B0000085EC0E947500A7ECB0E01197F1F700
S11301C000C000008CE40E947D008AE80E94750053
S11301D087EC90E00197F1F700C0000082E60E94EE
S11301E07D00C0E0D1E080910801813061F40E947B
S11301F07500AFE1BEE41197F1F700C00000CE0135
S11302000E949800F0CFFFCF809108018F5F809308
S113021008018FEC97E00197F1F700C00000089502
S1070220F894FFCF7C
S10B02246441206B696E670060
S9030000FC
