S011000070726F6A315F4C43442E73726563F5
S11300000C9456000C9473000C9473000C947300BD
S11300100C9473000C9473000C9473000C94730090
S11300200C9473000C9473000C9473000C94730080
S11300300C9473000C9473000C9473000C94730070
S11300400C9473000C9473000C9473000C94730060
S11300500C9473000C9473000C9473000C94730050
S11300600C9473000C9473000C9473000C94730040
S11300700C9473000C9473000C9473000C94730030
S11300800C9473000C9473000C9473000C94730020
S11300900C9473000C9473000C9473000C94730010
S11300A00C9473000C9473000C94730011241FBE01
S11300B0CFEFDAE0DEBFCDBF11E0A0E0B1E0E6E5CE
S11300C0F2E002C005900D92A830B107D9F711E013
S11300D0A8E0B1E001C01D92A830B107E1F70E9489
S11300E0EA000C9429010C94000094E095B98BB9B2
S11300F085E08A95F1F7000015B8089591E095B967
S113010095E09A95F1F700008BB985E08A95F1F7AF
S1130110000085E085B995E09A95F1F7000015B8DF
S113012085E08A95F1F700000895CF93DF93EC0101
S11301308881882309F44BC02196843419F18534CD
S113014048F48234B9F08334C8F4813279F18134CB
S113015089F50CC08834F1F0893418F4853451F5EC
S113016015C08C34D9F08F3429F51CC081E40E9469
S11301707E0023C082E40E947E001FC083E40E94AC
S11301807E001BC084E40E947E0017C085E40E94A8
S11301907E0013C088E40E947E000FC08CE40E949D
S11301A07E000BC08FE40E947E0007C081E20E94A3
S11301B07E0003C08FE70E947E008FE891E00197E4
S11301C0F1F700C000008991882309F0B6CFDF91D0
S11301D0CF9108958FEF8AB987E084B98FEF93EFB9
S11301E0A1E081509040A040E1F700C0000088E306
S11301F00E947500A7ECB0E01197F1F700C0000071
S11302008FE00E94750087EC90E00197F1F700C041
S1130210000081E00E947500AFE1BEE41197F1F7A0
S113022000C0000086E00E9475008FE99FE00197FE
S1130230F1F700C0000080E80E947500AFE8B1E06B
S11302401197F1F700C0000080E091E00E94950052
S1090250FFCFF894FFCF7C
S10B025648454C4C4F21000007
S9030000FC
