S011000070726F6A315F4C43442E73726563F5
S11300000C9456000C9473000C9473000C947300BD
S11300100C9473000C9473000C9473000C94730090
S11300200C9473000C9473000C9473000C94730080
S11300300C9473000C9473000C9473000C94730070
S11300400C9473000C9473000C9473000C94730060
S11300500C9473000C9473000C9473000C94730050
S11300600C9473000C9473000C9473000C94730040
S11300700C9473000C9473000C9473000C94730030
S11300800C9473000C9473000C9473000C94730020
S11300900C9473000C9473000C9473000C94730010
S11300A00C9473000C9473000C94730011241FBE01
S11300B0CFEFDAE0DEBFCDBF11E0A0E0B1E0EAE3CC
S11300C0F2E002C005900D92A631B107D9F711E014
S11300D0A6E1B1E001C01D92A631B107E1F70E948B
S11300E0A7000C941B010C9400002A9A8BB985E09C
S11300F08A95F1F700002A980895289A95E09A9530
S1130100F1F700008BB985E08A95F1F7000085B11D
S1130110856085B995E09A95F1F7000085B18A7FED
S113012085B98FE891E00197F1F700C000000895C8
S1130130CF93DF93EC018881882331F021960E94CC
S11301407D0089918823D9F7DF91CF9108958FEFAE
S11301508AB987E084B98FEF93EFA1E08150904092
S1130160A040E1F700C0000088E30E947500A7ECFE
S1130170B0E01197F1F700C000008CE00E94750018
S113018087EC90E00197F1F700C0000081E00E9445
S11301907500AFE1BEE41197F1F700C0000086E0FE
S11301A00E9475008FE99FE00197F1F700C00000FD
S11301B080E40E947500A7ECB0E01197F1F700C04D
S11301C0000080E00E947D0080E00E947D0080E0CD
S11301D00E947D008AE00E947D0080E00E947D00F4
S11301E081E10E947D008EE00E947D0080E00E94FB
S11301F07D0080E80E94750087EC90E00197F1F79C
S113020000C0000080E00E947D0080E091E00E9438
S11302109800CDE0D1E083B18830E9F381E00E9419
S11302207500AFE1BEE41197F1F700C00000CE0104
S10D02300E949800F0CFF894FFCF6D
S113023A48656C6C6F20576F726C642100644120AE
S109024A6B696E67000001
S9030000FC
