S01000006C6564426C696E6B2E73726563EF
S11300000C9456000C9473000C9473000C947300BD
S11300100C9473000C9473000C9473000C94730090
S11300200C9473000C9473000C9473000C94730080
S11300300C9473000C9473000C9473000C94730070
S11300400C9473000C9473000C9473000C94730060
S11300500C9473000C9473000C9473000C94730050
S11300600C9473000C9473000C9473000C94730040
S11300700C9473000C9473000C9473000C94730030
S11300800C9473000C9473000C9473000C94730020
S11300900C9473000C9473000C9473000C94730010
S11300A00C9473000C9473000C94730011241FBE01
S11300B0CFEFDAE0DEBFCDBF11E0A0E0B1E0EAE1CE
S11300C0F1E002C005900D92A030B107D9F711E01C
S11300D0A0E0B1E001C01D92A030B107E1F70E9499
S11300E075000C948B000C940000259A2D9A8FEFC8
S11300F093EDA0E381509040A040E1F700C00000E0
S11301002D988FEF93EDA0E381509040A040E1F74C
S10D011000C00000EBCFF894FFCF0D
S9030000FC
